{"abi":[{"type":"function","name":"RELAY_CHAIN","inputs":[],"outputs":[{"name":"","type":"uint256","internalType":"uint256"}],"stateMutability":"view"}],"bytecode":{"object":"0x60b761004d600b8282823980515f1a607314610041577f4e487b71000000000000000000000000000000000000000000000000000000005f525f60045260245ffd5b305f52607381538281f3fe73000000000000000000000000000000000000000030146080604052600436106032575f3560e01c8063af57bb88146036575b5f80fd5b603c6050565b60405160479190606a565b60405180910390f35b5f81565b5f819050919050565b6064816054565b82525050565b5f602082019050607b5f830184605d565b9291505056fea2646970667358221220bc1eaebe45699663763547339f6fbff703a688907a3edf1159b7b646fd86bf7864736f6c63430008140033","linkReferences":{}},"methodIdentifiers":{"RELAY_CHAIN()":"af57bb88"},"id":6}